S00F00006C616231312D322E7372656325
S113000055C0000070C000006EC000006CC000004D
S11300106AC0000068C0000066C0000064C0000040
S113002062C0000060C000005EC000005CC0000050
S11300305AC00000E6C0000056C0000054C00000D2
S113004052C0000050C000004EC000004CC0000070
S11300504AC0000048C0000046C0000044C0000080
S113006042C0000040C000003EC000003CC0000090
S11300703AC0000038C0000036C0000034C00000A0
S113008032C0000030C000002EC000007F024602D3
S11300904D0254025B02620269027002810248024C
S11300A04F0256025D0264026B02700211241FBEED
S11300B0CFEFD0E4DEBFCDBF11E0A0E0B1E0E4EECD
S11300C0F6E000E00BBF02C007900D92AC3AB10716
S11300D0D9F721E0ACEAB1E001C01D92A33CB2071C
S11300E0E1F72FD1FDC28CCF181619065CF00895E4
S11300F0000021503109E1F74F5F5F4F84179507E6
S113010019F4089540E050E027E033E0F1CF5E9821
S113011088B95F9A00005F9882E090E0E5CF089587
S113012081E0F5CF0895813118F48158F0CF089516
S11301308155EDCF089584E690E0D6DF88E3E7DFCC
S113014086E0E5DF8FE0E3DF81E0E1DF8AE090E055
S1130150CBCF08955E9A88B95F9A00005F9881E0DA
S113016090E0C2CF08950F931F93CF93DF93182F7E
S1130170EB01D6DF8881882351F001E0010F812F44
S1130180D2DF8991E7DF102F88818111F6CFDF91CB
S1130190CF911F910F91089560930401709305010D
S11301A080930601909307016093AC017093AD01B5
S11301B08093AE019093AF0108958BE0809381000A
S11301C08DE790E0909389008093880082E080938B
S11301D06F00109285001092840080910401909128
S11301E00501A0910601B09107018093AC019093A1
S11301F0AD01A093AE01B093AF018FB780688FBFFC
S113020008951F920F920FB60F9211248F939F930C
S1130210AF93BF938091AC019091AD01A091AE01D9
S1130220B091AF010197A109B1098093AC019093FA
S1130230AD01A093AE01B093AF01892B8A2B8B2B18
S113024099F481E08093B0018091040190910501BB
S1130250A0910601B09107018093AC019093AD0188
S1130260A093AE01B093AF01BF91AF919F918F91D5
S11302700F900FBE0F901F901895EAE7F0E0808171
S1130280806E80830895CF93DF938091C101813084
S113029009F44DC018F0823029F04EC082E08093FA
S11302A0C1014CC080B181E08093C201C0E1D0E0C3
S11302B0E82FF0E0DF01AF54BE4F209102013091EE
S11302C00301E20FF31FE45BFE4F90819C932BDF4D
S11302D0E091C201F0E0EF54FE4F80813BDF80915A
S11302E00201909103018E34910521F4D09303010E
S11302F0C09302018091C2018F5F8093C20181315A
S1130300B8F2809102019091030101969093030148
S1130310809302018091000190910101019771F491
S113032080E190E0909301018093000107C064E1B3
S113033071E081E018DF02C01092C101DF91CF911A
S11303400895CF93DF93CDB7DEB72F970FB6F89408
S1130350DEBF0FBECDBF1FEF14B915B811B912B867
S113036017B918B81AB91BB88CE0E8E0F1E0DE015F
S1130370119601900D928A95E1F768EC70E080E0A7
S113038090E00ADF1ADFD7DE80917800909179003F
S11303909F878E8772DF15B812B91BB9C12CD12C77
S11303A00F2EF8ECAF2EB12CF02DE12CF12C612C9A
S11303B0712C00E010E0812C912C20E030E03324FB
S11303C03A940F2EF3EA2F2EF02D44244394512C0B
S11303D004C0A12CB12CE12CF12C82B180B1809508
S11303E087708D87823029F092E0E916F10481F458
S11303F03AC196DE69E171E081E0B5DE8DE193DE1C
S11304008981A8DE42E0E416F10409F055C14FC128
S11304108D85843019F52130310581F59DE08916EB
S1130420910461F4812C912C09C0C42CD52C0F2E7D
S1130430F3E0EF2EF02DF12C812C912C4FEF841A48
S1130440940A8DE170DEE1E0F0E0EC0FFD1FE80DB1
S1130450F91D80817FDE242D352D10C08D858630D9
S113046069F45EDE66E371E081E07DDE083011054B
S113047008F04EC0F801EA5BFF4F29C108301105AE
S113048008F043C0F801E25BFF4F21C120E030E0F7
S113049081E485B901E010E038C020E030E081E279
S11304A085B902E010E031C020E030E081E385B995
S11304B003E010E02AC020E030E089E085B904E0E0
S11304C010E023C020E030E085E085B905E010E0CD
S11304D01CC020E030E083E085B906E010E015C0E0
S11304E035B812B818B81CDE63E571E081E03BDE74
S11304F0C42CD52CE42CF52C00E010E009C020E03D
S113050030E081E885B900E010E02115310569F497
S1130510C114D10491F4B7DE8091B0018823E1F3D2
S11305201092B00120E030E058CF2130310539F489
S113053091E0C916D10419F407C020E030E043E08B
S1130540E416F10409F073C080EFA8168AE0B80637
S113055009F06DC08091B0018823E1F31092B001DD
S11305600F5F1F4F8E859F858D3B924048F08DEF26
S113057068168FEF780609F493C091E0691A710840
S11305808E859F858C32914038F482E06816710420
S113059031F19FEF691A790A4FEF6416740659F125
S11305A05CF49DEF69169FEF790689F14EEF6416AE
S11305B04FEF740641F10DCF81E06816710439F0F4
S11305C07CF142E06416710409F003CF08C032B82C
S11305D081E78BB9A12CB12CE12CF12CFECE32B8E1
S11305E098EF9BB9A12CB12CE12CF12C68946624D2
S11305F061F8712CF2CE32B847E04BB9A12CB12C82
S1130600E12CF12CEACE8FEE82B98FE08BB99FEC0E
S113061092B94FED4BB9A12CB12CE12CF12CDDCECC
S113062032B82BB8A12CB12CE12CF12CD6CE809170
S1130630B0018823E1F31092B00188ECA80EB11C3C
S113064091E0E916F10409F0C8CE48EBA4164BE09A
S1130650B40609F0C2CE35B812B81BB86894EE24BB
S1130660E1F8F12CBACE5CDD69E171E081E07BDD7B
S11306708DE159DD89816EDD81E885B932B82BB809
S11306808D85843009F4D1CEC42CD52C0F2EF3E003
S1130690EF2EF02DF12C242D352D812C912CDECE36
S11306A08E859F858C32914008F473CFB0CF0F2E86
S11306B0F3E0EF2EF02DF12C81E885B932B82BB898
S11306C0C42CD52C242D352D812C912CC7CEEE0F86
S11306D0FF1F0024001C0BBE0790F691E02D099427
S10706E0F894FFCFB8
S11306E41000100001000000303132333435363745
S11306F4383930317465737400486967682053630A
S11307046F72653A2031303020596F75722053630B
S11307146F72653A2000476F6F646279652C2054C8
S113072468616E6B7320466F7220506C6179696ED8
S1130734672100596F75204C6F73742100202020A9
S113074420202020202020202020202053504143FA
S11307544520494E56414445525320427920442E63
S1130764487565636B6572207072657320207374B9
S113077461727420746F20706C61792020202020B1
S10F078420202020202020202020200005
S9030000FC
